:020000040800F2
:20300000BEBA0DF0013400083CFF68D518C94FEF711520949AAA70A47C19B18528BB516B6B
:20302000376BEB41006DB554D7D08366D83B27756961C6A54B3E4DECA537393F2134000865
:20304000000000000000000000000000000000000000000000000000000000000000000070
:20306000000000000000000000000000000000000000000000000000000000000000000050
:20308000000000000000000000000000000000000000000000000000000000000000000030
:2030A000000000000000000000000000000000000000000000000000000000000000000010
:2030C0000000000000000000000000000000000000000000000000000000000000000000F0
:2030E0000000000000000000000000000000000000000000000000000000000000000000D0
:203100000000000000000000000000000000000000000000000000000000000000000000AF
:2031200000000000000000000000000000000000000000000000000000000000000000008F
:2031400000000000000000000000000000000000000000000000000000000000000000006F
:2031600000000000000000000000000000000000000000000000000000000000000000004F
:2031800000000000000000000000000000000000000000000000000000000000000000002F
:2031A00000000000000000000000000000000000000000000000000000000000000000000F
:2031C0000000000000000000000000000000000000000000000000000000000000000000EF
:2031E0000000000000000000000000000000000000000000000000000000000000000000CF
:203200000000000000000000000000000000000000000000000000000000000000000000AE
:2032200000000000000000000000000000000000000000000000000000000000000000008E
:2032400000000000000000000000000000000000000000000000000000000000000000006E
:2032600000000000000000000000000000000000000000000000000000000000000000004E
:2032800000000000000000000000000000000000000000000000000000000000000000002E
:2032A00000000000000000000000000000000000000000000000000000000000000000000E
:2032C0000000000000000000000000000000000000000000000000000000000000000000EE
:2032E0000000000000000000000000000000000000000000000000000000000000000000CE
:203300000000000000000000000000000000000000000000000000000000000000000000AD
:2033200000000000000000000000000000000000000000000000000000000000000000008D
:2033400000000000000000000000000000000000000000000000000000000000000000006D
:2033600000000000000000000000000000000000000000000000000000000000000000004D
:2033800000000000000000000000000000000000000000000000000000000000000000002D
:2033A00000000000000000000000000000000000000000000000000000000000000000000D
:2033C0000000000000000000000000000000000000000000000000000000000000000000ED
:2033E0000000000000000000000000000000000000000000000000000000000000000000CD
:20340000002110B5044B054A934201D202C3FBE700F052F810BDC046080000206804002018
:203420001D4A1368083313601C4B1B68002B12D01B4B1A6808321A601A4A19681268914237
:2034400009D372B68020184900010A6802430A6062B600221A60154B5A68002A12D01A68E1
:2034600008321A601A6908321A611A69632A09D972B680200C49C0020A6802430A6062B656
:2034800000221A610A4B1B68002B03D0094A1368083313607047C046080000203C000020FC
:2034A00038000020300000200C000020180000201000002034000020254B264A30B51A603D
:2034C0000023254A254C9360A5445360244C1360244A90201460C02252010192022201A94F
:2034E000C0050293049303921F4D00F075F92368AB4210D080222100D20006A800F014FAE3
:2035000080221A4BD20006A920000793069500F04FF800F0A7F8B0221549920108311548AF
:2035200000F046F880220021D20006A800F03AFA802206A9D200200000F03AF800F092F817
:20354000BFF34F8F0C4A0D4BDA60BFF34F8FFEE714000020006CDC0218000020E4FBFFFFEB
:203560000030000800000020C75E07B001340008303A0008000400080400FA0500ED00E08C
:20358000094B70B51A6805000E001C0082420AD000F068F8002E05D080222900D200034828
:2035A00000F0C2F9256070BD4000002044000020F7B50C00151E4ED0870ABF02B8421FD0A6
:2035C0008026C31B012138000193FFF7D9FF019BF600F61AB6B2B54200D2AEB2019B1E4876
:2035E0001B041B0CC0183200211E03D000F09CF9A41901E000F0D6F98023DB00AD1BFF182A
:203600002E00164BA81B38189E4212D90021FFF7B7FF80221048D200211E05D000F084F923
:203620008023DB00E41801E000F0BCF90C4BF618E7E7A80A80022D1A3818002D0BD0012162
:20364000FFF79EFF04482A00211E02D000F06CF901E000F0A7F9F7BD44000020FF03000070
:2036600000FCFFFFF8B5164F3E68002E27D000F04BF8300000F09EF80120404200F070F88F
:203680000222104C104D23699343236180220E4BD2009B189D420ED22988300000F050F80F
:2036A0000120404200F05CF8012223690235934323610236EAE700F039F800233B60F8BD46
:2036C000400000200020024044000020014B18687047C04608000020094BDA68D20604D5CC
:2036E00002200849CA690243CA61DA68520704D501200449CA690243CA611422DA60704708
:203700000020024048040020054B01201A69120604D50020034A5A60034A5A607047C0460B
:203720000020024023016745AB89EFCD8021034A002013690B4313617047C04600200240FC
:20374000002210B50124044BDA61044A136923431361018010BDC04648040020002002400D
:2037600070B50400FFF7B2FF012506001049CA680F4B2A420BD0631CF9D0002C01D10320B8
:2037800015E0FFF7A3FF801B8442EFD2F7E72022D968114200D0DA60D8681023184003D11D
:2037A000034BDB685B0702D5FFF796FF012070BD0020024000220221054BDA61054B1A6961
:2037C0000A431A6158611A693E310A431A6170474804002000200240F0B50B6887B0039344
:2037E00000230291039ADA4000D190E001229A40039C1440019400D187E0029A10215268D7
:2038000016008E43022E0ED107251D40AD000139A940DC08A4000419276A8F430299096944
:20382000A9400F43276203245F00BC400321E4431140B9400568013E25400D430560012EB8
:2038400010D802998568CE682540BE40354301269E40012185604568B54316090E409E40EB
:2038600035434560C56802992C408D688021BD4049052C43C4600A4247D00121254C032763
:20388000A5691F400D43A5610F25A469BF000C400594059C20499C08A4006418BD40902104
:2038A000A668C905AE430025884208D01B490135884204D01A490435884200D1033DBD40C8
:2038C000019935430E00A560164CCD4327683E43D10301D43E002E4026606768019E3E4377
:2038E000910301D43E002E406660A768019E3E43D10201D43E002E40A660E668019F3743FC
:20390000920201D42E403700E76001336AE707B0F0BDC04600100240000001400004004884
:20392000000800480004014070B50F2A32D90C0004430B00A40731D115000400103D2D09E2
:2039400001352D0149191E6826605E6866609E68A660DE681033E66010349942F3D10F2319
:2039600045191340032B1BD91C1F0023A4080134A400CE58EE5004339C42FAD103232D19E1
:2039800009191A4005D00023CC5CEC5401339A42FAD170BD0500002AF5D1FAE70500F2E78F
:2039A0001A00F8E770B583073FD0541E002A3BD0CEB20300032503E0621E002C34D0140057
:2039C00001335A1E16702B42F6D1032C24D9FF250D402A0215432A0415430F2C11D926008F
:2039E000103E3609013636011A009B19156055609560D56010329342F8D10F221440032C16
:203A00000AD9261FB6080136B6001A009B1920C29342FCD103221440002C05D0C9B21C1957
:203A2000197001339C42FBD170BD14000300CCE70800040000002C00002370B509480A4904
:203A40000A4C1A188A4203D2E55804331560F8E70021074B074A934201D202C3FBE700F072
:203A60003FFB70BD0800002008000020802F000808000020EC090020001800200104000856
:203A8000D5ACE78FF152EBB2DFF815FB2CCBB98A1CDD365A4CC160C761903E15B4D31E394F
:203AA0005A8F73BCC4928AB276DB10CD74157435983A9614350700082E11C112EB241C5CA3
:203AC000A9CD8D891187D45177686F0FD12CBC3D57D1A3672C041B0DA9FB0048058312B684
:203AE000B9CC659290D788422AFC2A88E49F0F00D63267FBE6021301BDBAE91D22ACC83CFA
:203B0000AF3617DA85155A36F6F24FF407BA0C99F82F0B8F43A6C0B6BFECEF5BD8F45E8C49
:203B2000315B804E6E68D532CB5AD4D5D65F8585E8B5D81C2507000813B501248C408A40F9
:203B40004B1C01930368A3431A43026013BD7FB5A72390200193A63B0293002301A9C00540
:203B60000393049301F060F807B000BDF0B51F4C020089B00E0020000021FFF7DDFF0222CB
:203B800009250292236893432360013DEDB20623002D18D02027049323683200BB43236048
:203BA0007F239A430192019A0721531E9A410F48FFF7C2FF0623039323687600BB431F43B6
:203BC0002760F6B2E1E720220793236893431E3A23600692236893431343013A2360059232
:203BE00023689343236009B0F0BDC0461400004810B501000020FFF7B9FF10BD10B50100F2
:203C00000120FFF7B3FF10BD10B504008120FFF7EFFFFF206421604302F0E8F8C0B2FFF73F
:203C2000E7FF10BDF8B500240C4B1B68A34213D050277F42380000252043C0B2FFF7D8FF27
:203C4000074EE301F618705D0135FFF7D7FF802DF9D10134042CEDD1F8BDC04608020020CF
:203C60000800002070B586B0FFF771FF01221D4C0592236803269343921823600492236860
:203C800004259343134323600623039323681E3293432360029623680A20AB43236000F0AB
:203CA000E1FE019623680A20AB432B43236000F0D9FE00240C4BE05C0134FFF799FF1F2C6E
:203CC000F8D1802200219200084800F013F80122074B1A60FFF7A6FFAF20FFF789FF06B0EE
:203CE00070BDC046140000483C290008080000200802002003008218934202D01970013375
:203D0000FAE77047002310B59A4203D0CC5CC4540133F9E710BD425C41184B788878120285
:203D20001A43CB780002120418431043704700207047000010B5002809D0FA21054B8900D5
:203D4000186802F053F8C00000F0D2FE01E0024B186010BD1404002010E000E010B502489C
:203D600001F0F6F910BDC046D4020020054A136808331360044B5A68002A02D01A68083259
:203D80001A607047040000201C04002030B520230024012599B00BA80B931295149401F042
:203DA0005DFB0323290001A8029301950394049401F0A0FB054B05A8059307940A9401F00E
:203DC000D7FB034A034B1A6019B030BD01000200006CDC0214040020802210B5D200002167
:203DE000024800F0E1FA00F039FB10BD00300008F0B589B001F0B0FC784BFF271B0E039362
:203E0000764B3F021B0CDBB20493744B1B0ADBB2059300231800019300930100009801F060
:203E200089FD0028F9D06E4C2378E02B00D08FE06078C0B2042800D995E001F0CDFF2703C1
:203E40008B941C00052267492000FFF75BFF601D03226549FFF756FF6B461B7B0C2023723D
:203E60006B461B7C63726B461B7DA3725B4BE37290231B0289E005212000FFF74CFF5B4B66
:203E800098426AD0FF275A4B3F027DE0FF2325791B02EDB29F4264D06079ABB20538042875
:203EA00061D84F4E01F098FF030B285F2D00052B5BD106213000FFF72EFF01901EE0043B3E
:203EC000FC2B52D8B479F37924021C43019BE418424BA34257D8033D464B2A199A4252D820
:203EE0003E4B454A1968914203D01A68434B9A425BD1FFF771FF58E000F0B0FA90231B0263
:203F000042E0052B31D13E4C344B211FC91A32003C4800F089FD80223300520021003A482B
:203F200000F0A8FB002823D02C4C0422200007A900F03AFA00F092FA606800281AD0226861
:203F40002D4B9A4218D022682C4B9A421BD113E0DC230BE090231B0212E090232B4F1B0273
:203F600012E02B4B10E0DA2300E0CE23DB010BE0284B0AE0284B08E09023FF271B023F0265
:203F80008022009200E0244B0020154A190A1154DCB2411C54549022023080B21202934205
:203FA00000D13AE7FF273F0237E70C4B1E1DB4420DD20B4B361B08333200190007A80293B2
:203FC000FFF7A0FE320000210298FFF793FE04492A000831200000F0E7F98FE7003000088B
:203FE00034040020392B0008352B000801000001846A000000800008C75E07B0BEBA0DF0CC
:20400000B87E000804300008602B000811EE00008569000082690000846900000E4B0F4A1C
:20402000196810B5914215D172B60D4A82F309885B68984772B60B4A0B4B1A6000F0AEF976
:20404000FFF7CAFEBFF34F8F084A094BDA60BFF34F8FFEE710BDC04600300008BEBA0DF03D
:204060000018002040040008000000200400FA0500ED00E070B5102805D0830705D4124CD9
:20408000C30703D41EE0114C00E0114C21004F221048FFF737FE21004F224F310E48FFF774
:2040A00031FE002380200F251E000C4C800019190A78AA43D02A00D10E7001338342F6D13A
:2040C000FFF7B0FD70BDC046972A0008F92900085B290008A0000020200100200800002062
:2040E000F0B5934A0026934B934D1A608023934CAE6001276E602E60E2695B051A43E26181
:20410000E2698FB0134080220193019BA36992023B43A361A36990203B400293029B636999
:2041200009A9134363616369C00513400393039B80231B02099303230A970C930B9600F048
:2041400073FD8021902032000902C00500F0AFFD80226369120313436361636909A9134092
:204160000493049BC02376489B0009930A9700F05BFD80213A004900714800F098FD802145
:20418000320089006E4800F092FDFFF7FFFD6D4B90200993032309A9C0050A9300F044FDCE
:2041A00080226369D20213436361636909A913400593059B644B6548099300F035FD8022DE
:2041C0006369120313436361636909A913400693069B5F4B5A48099300F026FD3200032188
:2041E0001F2000F04BFC012032003900404200F045FC3800FFF79EFD62B600F0CFF8300042
:20420000FFF730FD1420FFF7FFFC1020FFF732FF8022636992021343636163699020134014
:204220000793079B802309A91B02C00509930A960B9700F0F9FC80226369D20213436361EC
:20424000636980241340089309A94048089B099400F0EAFC102321003C482E60AB6000F04F
:2042600020FD80214442444190200902C00500F018FD43425841B840204368608021334893
:2042800000F00FFD80214442444190200902C00500F007FD434258414000204368606B68A6
:2042A000002B20D06C68012C0CD12A68294B9A4208D9AB68234205D12000FFF7DBFEAB68F2
:2042C0001C43AC606C68022CD8D12A68214B9A42D4D9AB682342D1D12000FFF7CBFEAB6835
:2042E0001C43AC60CAE76B60AB689B0702D42868FFF794FEFA20400000F0B4FB0220FFF723
:20430000B9FE0122144B154C1A7015490022200001F018FB1349200001F032FB12492000C0
:2043200001F01AFD200001F031FBFFF761FDC04640040008000000201C04002000100240E0
:2043400000080048FF030000FFFF000000040048FFFC0000B70B0000180400201002002096
:20436000042F0008242F0008742F0008094B70B51A6805000E001C0082420AD000F06EF8DE
:20438000002E05D080222900D2000348FFF7BAFC256070BD64050020680500200022014B50
:2043A0001A60704764050020F7B50C00151E4ED0870ABF02B8421FD08026C31B0121380021
:2043C0000193FFF7D3FF019BF600F61AB6B2B54200D2AEB2019B1E481B041B0CC0183200FC
:2043E000211E03D0FFF78EFCA41901E0FFF782FC8023DB00AD1BFF182E00164BA81B38181A
:204400009E4212D90021FFF7B1FF80221048D200211E05D0FFF776FC8023DB00E41801E067
:20442000FFF768FC0C4BF618E7E7A80A80022D1A3818002D0BD00121FFF798FF04482A00F7
:20444000211E02D0FFF75EFC01E0FFF753FCF7BD68050020FF03000000FCFFFFF8B5174F85
:204460003E68002E29D072B600F076FB300000F0C9FB0120404200F09BFB0222104C114DFB
:2044800023699343236180220E4BD2009B189D420ED22988300000F07BFB0120404200F01D
:2044A00087FB012223690235934323610236EAE700F064FB62B600233B60F8BD64050020CE
:2044C0000020024068050020F0B500240025002387B000940195026893421BDA009E019F09
:2044E0000C68029400240394029C039DA4197D419E00B44684446646B66801330496002620
:204500000596049E059FA41BBD4110C1EC1700950194E1E707B0F0BDF0B59DB00D9300231E
:204520000D00040019001A920268934203DA980029500133F9E70023069323680C930C9AD8
:20454000069B934200DB90E0069B1A9A9B00D3582F0018930D9B189A1B6802930023029876
:20456000190001F0DBFC2B68049300230593049A059B12184B4102920393029A6368A068E8
:2045800053431A0019930023190001F0C7FC029B0E93059B0F930E9A0F9B12184B410892AD
:2045A000099301230793079A0C9B93423EDD079B9E00039B0093002301937B681093002398
:2045C000119310981199009A019B12184B41029203930D9B189A9B59A6191B9300231B983E
:2045E000190001F09BFC029A039B12184B4102920393019BB068199A190001F08FFC099B60
:204600001293019B1393129A139B80185941029B1493019B1593149A159B12184B410892F1
:204620000993089B08C7079B0133BBE7039B0A9300230B93099B1693002317931698179980
:204640000A9A0B9B801859410C9B002B00DC0123074A9B189B005851002903D0290020007F
:20466000FFF732FF069B013366E71DB0F0BDC046FFFFFF3FF0B5454C1E000368A544040089
:20468000402B01D000207DE080235B009A42F9D10933FF33C0583E4B9842F3D100236D463A
:2046A000C85C585501339342F9D100253FAB1978AF000806597840AA09040143D878013567
:2046C00001439878043B00020143B950402DEED123000933FF3380A92000FFF71DFF0827B1
:2046E000C0AD80AB1A0029002000FFF715FF013F2B002A0080A92000FFF70EFF002FEFD1E5
:2047000040AB80AA29002000FFF706FF2368002B07D0013B9A00A958A2189268914204D37E
:20472000F5D929002000FFF7CFFE6B4622680133013A0BD491006958581E0C0E0470080CAC
:204740001870080A587099700433F1E78022E02152000B00E03BF05C6B46CB5C434068466F
:204760000B5401319142F4D16A4600F05DF90023084A6946C85C995C884283D10133202B40
:20478000F7D10120044B9D44F0BDC046FCFBFFFF010001003E2B0008040400000A4B002266
:2047A00083640A4BC3640A4B03650A4B43650A4B83650A4BC3650A4B03660A4B4366002343
:2047C000026043607047C04667E6096A85AE67BB72F36E3C3AF54FA57F520E518C68059B0C
:2047E000ABD9831F19CDE05B3F23F0B5066847680468D51723401400A4197D4104604560FB
:20480000D1B08A1801910E920E9A01998A4200D1C2E001995A1C0978C3181972402A00D091
:20482000B5E00300002108331A7814065A7812042243DC7822439C7804332402224310AC40
:204840000A5104314029EFD111AA41AD116807240E001227E6410C00FC41C90874404C408A
:20486000111F166A0968536B891961181E001124E6411C000137FC419B0A74405C400C1919
:20488000D46304329542E1D1836C0493C36C04990593036D059D0693436D069C0793836DB1
:2048A0000893C36D089A0993036E0A93436E0B93079B0D930B9B0C930A9B0393099B029397
:2048C000002300930D230F000226DF410B00F3415F400B001436F3415F4023006B400B407C
:2048E0009C46230066462B407340FB180F9317000B230626DF411300F34116005F4019236B
:20490000DE41264B7740009EF3589C4610ABF358039E6344FF18029B964313407340FF188D
:204920000C9B0F9EFF180D9B0D94FB18F719009E04360096039E0C9680267600B446009E3B
:20494000664507D0029C029203941A002C000D003900B7E7049EF719059E87647118C164F4
:2049600006994D19079905650C1908994465CB188365099B9A18C265029A0A9B9446039AB9
:2049800063449446002203660B9B63444366019B01330193130037E751B0F0BD702D00082D
:2049A0000300F0B5083385B0416800930368CE005A0F1643DB0001221949040001933F274A
:2049C000FFF712FF25683D40382D05D0012215492000FFF709FFF5E702AB2A000198310070
:2049E000DF1D01F08FFA083D3870012239002000FFF7FAFE2B000833EED12100009B483190
:204A0000283404C9100E1870100C5870100A9870DA700433A342F4D1009805B0F0BDC04696
:204A20006E2D00086C2D000870B50E0005009AB068461400FFF7B2FE320029006846FFF749
:204A4000D3FE6846FFF7ACFF202201002000FFF759F920001AB070BD014B18687047C046EB
:204A60000400002013B50190FFF7F6FF0400FFF7F3FF019B001B9842F9D313BD70B5890106
:204A8000002814DA0F23C0B20340083B114A9B0803249B009B18FF222040A04014000A40A4
:204AA00084408240DD69A5432A43DA6111E08208094B03259200D218FF232840A8401D0098
:204AC000C02485400B408340A4001659AE433343135170BD00ED00E000E100E01F231840EC
:204AE0001E3B8340014A13607047C04600E100E00A4A012390420ED8094A01385060C02012
:204B0000084900060B6A1B021B0A03430B62002307219360116018007047C046FFFFFF0053
:204B200010E000E000ED00E0094BDA68D20604D502200849CA690243CA61DA68520704D507
:204B400001200449CA690243CA611422DA6070470020024068090020054B01201A6912061E
:204B600004D50020034A5A60034A5A607047C0460020024023016745AB89EFCD8021034A61
:204B8000002013690B4313617047C04600200240002210B50124044BDA61044A13692343D2
:204BA0001361018010BDC046680900200020024070B50400FFF750FF012506001049CA6815
:204BC0000F4B2A420BD0631CF9D0002C01D1032015E0FFF741FF801B8442EFD2F7E720225E
:204BE000D968114200D0DA60D8681023184003D1034BDB685B0702D5FFF796FF012070BDD5
:204C00000020024000220221054BDA61054B1A690A431A6158611A693E310A431A6170479D
:204C20006809002000200240F7B50B6800930023009ADA4034D001229A40009C14422DD008
:204C40004C68022C0DD107270F261F40BF00BE40DA0892008218156AB5430E69BE403543A3
:204C6000156203225F00BA40D243056826001540019503252E40BE40019D013C3543056060
:204C8000012C05D8CD688468BD4014402C438460C46822408C68BC402243C2600133C7E75E
:204CA000F7BD00690840411E8841C0B27047002A01D0816100E0816270470000F8B5040036
:204CC0000120002C3ED02500FF35AB7ADBB2002B03D16B72200000F059FC270003232600BA
:204CE0002837AB727022002138009836FFF702F8702200213000FEF7FDFF00233800190047
:204D000001276268934205D003704770C17001331C30F7E700231900934204D03370F17055
:204D200001331C36F8E700200121236805349A1C9E1D5033D187D087F0871880024BD387AF
:204D4000E077A972F8BDC0460084FFFF8022036812025833198800200A431A807047020097
:204D600010B5FF32547A0223012C0CD0013B5372002904D1036880314C33198001E00530F8
:204D8000C17700235372180010BD0000F0B57F251C240D4049B26C43002906DA2100041947
:204DA000283141182934012605E021000026983104194118993426700400CB700D70CA6009
:204DC000FF34657A0223012D00D185E0013B63720C780368CD78A400404E1C19002D04D18A
:204DE000258835408026B60003E025883540C026F600354325800C78394EA700DF193D88C8
:204E00003540AC466646374D2C433443A4B23C801F004C78AC46260050370C788D88002EBA
:204E20001DD03A88E4001C19A4188022D200A4180122954325800A7892009A181488640652
:204E400005D51488264E2640274C264316800A7892009B181988254A0A40202134E03E8854
:204E6000E400A419224E1C19A4190126B54325800D783C88ED002D191E4C1C192D193E2AA2
:204E800008D95409D20601D1013CA4B21A4AA402144304E05408324200D00134A4022C802B
:204EA0000A7892009A181488640405D514880C4D2C40124D2C4314800A7892009B18198823
:204EC0000F4A0A40C02189014A40614611438AB21A800023FF3043721800F0BD8F89FFFF87
:204EE0000F0F00008080FFFFC0800000BF8FFFFF04040000060400000080FFFF80C000003A
:204F00008FBFFFFFF0B505007F201C2401404C432C192000A83002602200AC3213600023B7
:204F20002E0083600F38037001380170FF36777A0220012F44D001387072A4341068246879
:204F4000A04203D9001B1060200000E013601C234B43EB181A00A23212782C68002A1DD1A1
:204F600022009833503217881A78164BD200D219E318D2183E2809D943099BB2C00601D115
:204F8000013B9BB210489B02034306E043089BB2C00701D501339BB29B0213801C204143C1
:204FA0006D1898352B7800209B00E4182288074B1340C02292015340054A134323807072C4
:204FC000F0BDC046060400000080FFFF8FBFFFFF8080000030B50400FF34637A020002202D
:204FE000012B37D0012348B263721B33002804DA7F250D406B43283301E04B4398330125DD
:20500000D3189D707E352940C50F5D7019701268114D002908D11188104B0B4010494B4055
:205020002B439BB2138013E0890051180A88002805DA0C4B1340102253402B4306E00A4B8C
:205040001A4080235B015A402B0013439BB20B800020607230BDC0468080FFFFBFBFFFFFA5
:2050600010100000BF8FFFFF8FBFFFFF70B58024E40000190C0001335B108218002B08D06A
:20508000657826782D02601A354385520234013BF4E770BDF8B505007F201C2401404C43C2
:2050A0002C192000A263E363002201232E002930226401384370FF360170777A02209F4267
:2050C0002CD07372E36B676BBB4202D9DB1BE36301E01F00E2631C246143BFB26C18A16B91
:2050E000A28D28683B00FFF7C1FF2D6828342B00227850331888D200094BAA181218D2182B
:2051000017802378074A9B00EB18198800200A4030214A4004490A431A807072F8BDC046B7
:2051200002040000BF8FFFFF8080000010B58024E40000190C0001335B108218002B05D072
:20514000601A805A013B20800234F7E710BD0000F0B5036885B00633DB8F04001BB2002B5A
:2051600011DB23680633DA8F520500D453E1D98FAA4A20000A40DA8700F066FA00212000FF
:20518000FFF7EDFD47E102AB9F1D00233B80206803AA831DDB8F9BB213801BB2002BE0DAEF
:2051A0000F2315881D4000D09BE011880133194027D102889A4B1340220003800300283296
:2051C000127850331B88D2008018C018954BA26BC018038820009B059B0D2364D318A363AD
:2051E00000F028FA631DDA7F002AD0D0E06B0028CDD18022D97F114322684C321180D877B3
:20520000C5E703889BB23B803B881B051DD5030022005033983219881378DB00C3185B18B3
:2052200081495B1821001B880D319B059B0D9361FF319288FFF77AFF22687C4B1188200030
:205240000B40138000F0BEF9A1E73B881BB2002B9DDA0288754B25001340038003009835FA
:2052600050331A882B78DB00C3189B186E4A9B181B889B059B0DAB6109D02969002906D031
:20528000AA88FFF753FF2B69AA699B182B610021200000F0A1F92168E8680B0050331A88DA
:2052A000614B8A18D2183E2809D943099BB2C00601D1013B9BB25E489B02034306E04308FA
:2052C0009BB2C00701D501339BB29B0213800A88584B1340C02292015340574A13430B8021
:2052E00055E7AB000193C3181A8892B23A803A8812B2002A4BDA19884C4A0A401A800300C5
:20530000503319881C236B43E3181A0098321278D20082185218444952181688B605B60D2A
:2053200009D01A00A8321168002904D09C331A883300FFF7FBFE1C2213006B43E318180085
:20534000B0300168A833891901601968002901D0891919606A43A2181300AC331B68002B89
:2053600004D01100A43109688E4208D21C236B43E31898331978200000F02EF907E01000E6
:205380009832A830117802682000FFF7BBFD80223B88134200D1FAE62068AB00C318198890
:2053A0001F4A0A401C211A8003006943503361181A880B0028331B78DB00C3189B18194A51
:2053C0009B181B889B059B0D0B6403D08A8D896BFFF74CFE2068030050331A881C235D4313
:2053E0006519290028310B78DB00C3189B180D4A20009B181A88AB6B9205920D2A649A1869
:20540000EB6BAA630978002B02D100F013F9BEE6FFF740FEBBE605B0F0BDC046FFFBFFFFD5
:205420000F8FFFFF02040000060400008F0F00000080FFFF8FBFFFFF8080000010B51C2255
:205440000C0604D57F2421404A43283201E04A4398328118002088728B8010BD036870B523
:205460009B0601D400203FE00C23204C62681A409A4209D062681340082B0ED1C022636827
:2054800052021340934208D1636BDB03EAD5C0690138431E9841C0B226E0C369002B11D000
:2054A0008025636B6D022B436363FFF7D5FA0600636B2B42D6D1FFF7CFFA801B6428F7D973
:2054C000032011E0626B0A4B802513406363FFF7C3FA06006D02636B2B42C3D0FFF7BCFA36
:2054E000801B6428F7D9EBE770BDC04600100240FFFFFEFF012310B51A4C22681A408A4264
:205500000AD303685B0726D51749184B4A681340C26813434B601EE022689A430A432260BF
:2055200022681A4091421AD102681A42E9D041680D4A032902D1546BE40310D503245368DE
:20554000A3430B435360A142DBD10C2153680B400C2BFBD1D5E70320FEF7E9FB00231800AC
:2055600010BDC0460020024000100240FFF8FFFF03689B0306D5802203490B6B93434269E6
:2055800013430B63002070470010024007B50B4B02689A4211D18023094A1B04D1691F2056
:2055A0001943D161D2691340002201931100019BFFF764FA1F20FFF791FA07BD005C0040F8
:2055C00000100240010010B50D31FC30FF31006C00F0EEF910BD0000F8B51C234B43C318B4
:2055E0009C331A8850239C4604000068CF00844463460D001B880D49DB194618995B40238A
:205600008905890D994205D863461B88FF18BB5B9B059B0D064EFC343100FFF787FD32008C
:205620002900206C00F0E4F9F8BDC046060400008C0900201C234B4310B5C318FC309A6BD0
:20564000006C00F0FDF910BD10B5FC30006C00F03CFA10BDA02270B5114C0500520000211F
:205660002000FEF747FB2300FC331D640D4BC035236004232C6063602000023BA3602361D6
:20568000FFF71CFB0022286811004023FFF7D6FE8023286800221900FFF7D0FE002070BD8E
:2056A000D4020020005C004010B5C0300068FFF74DFB002010BDF8B51E007F23C0300D00A6
:2056C000170004000B40CA095B009B1801339B0189B200220068FFF7B1FE3B0032002900B3
:2056E0002068FFF753FB0020F8BD10B5C0300068FFF770FC002010BD10B5C0300068FFF78A
:205700002EFB002010BD000070B57F243026074D0C402D68A4002C1925883540302DFBD0ED
:20572000C0300068FFF7B6FC002070BDD402002010B502000B0002488221FFF7E5FF10BDC0
:205740001002002010B5C030130000680022FFF7D9FB002010BD00000022014B1A6070476F
:205760008809002070B527498B78052B3DD1264DCB7808792C681B020343A3423ED12B68ED
:20578000002B19D148798B79000218431F4B186097201C684000844230D8073A94B21A689E
:2057A0001B4B1C481A601C4A10601A68944201D91C68A4B207310AE0154B053A94B21A683A
:2057C000944201D91C68A4B2134B053118682200FEF798FA104A13681B1913600C4B1A682D
:2057E000141B1C602B6801332B60094B01201B68002B05D1044A0018136001E00020286051
:2058000070BDC0468C09002088090020D4090020D009002034040020CC090020F7B50C1ED6
:20582000019000920FD16B461B785BB2002B4FDAC820FFF717F9BFF34F8F294A294BDA6021
:20584000BFF34F8F43E00023274A28491360284A1160284A1380284E3E22B01C0021FEF77D
:2058600049FA0523B370204B30001A68120AF2701A681B683271002B0AD13925AC4200D82D
:20588000E5B21B4F230A7371B47107303E6806E03B25AC4200D8E5B2154F05303E682A00E8
:2058A0003100FEF72FFA104B641B1A6876190132A4B23E601A60002C02D11C600D4B1C809E
:2058C00040210D48019B9847002CC4D1ABE7FEE7009B00209B0602D4064B188880B2FEBD4F
:2058E0000400FA0500ED00E08809002034040020CC0900200C0200208C09002010B5011E13
:205900000DD0084B0848E8331A6892B2FFF72AFF022804D1054B064A1B689BB213800020E5
:2059200010BDC046D4020020F9200008D40900200C02002010B502000148FFF76FFF10BD11
:20594000F920000870B504000D00160000210422FEF7D0F92300B4331A68002A01D000222C
:205960001A60002D02D02300B0331D60230001229C331A7020002670FFF76CFE002070BD29
:20598000002901D0B43001600020704710B5FFF78BFE002010BD0300B4331B6810B5002B63
:2059A00001D1022003E01B6898470028F9D110BD70B505000400A835280000F0B4F82300FD
:2059C000012294331A602200AE3212885A601F232A78134006D0012B08D12900200000F0C2
:2059E0008AF803E02900200000F0BBF8002070BD10B503001400002914D194331B68032BA7
:205A00001CD1C36D026E934209D99B1AC3659A4200D91A0092B2210000F0C0F90EE000F0AA
:205A2000C3F90BE0B4331B689B69002B06D002009C321278032A01D122009847002010BD09
:205A4000F8B504001500030000292FD194331B68022B38D1C369066AB3420AD99E1B0A009D
:205A6000C661FFF76FFEA28B2900200000F08EF929E087693100380000F03EFA0D1E11D118
:205A8000BE420FD82600983633689F420AD20A002000FFF757FE2A002900200000F076F98C
:205AA000356010E0200000F08BF90CE0B4331B68002B08D05B69002B05D002009C32127856
:205AC000032A00D198470020F8BD70B50022012604004025067411004023FFF7ECFD2566E5
:205AE0002B00002280212000FFF7E5FD25629C342670002070BD030070B59C331B780400F8
:205B00000D00032B0DD10B79012B0AD80300B4331B689B689847EB88002B02D1200000F00A
:205B200043F9002070BD0B7803704B784370CB788A781B02D31843804B790A791B02D31811
:205B40008380CB798A791B02D318C380704710B504008021FFF7C9FD00212000FFF7C5FDDA
:205B600010BDF7B54B7804000E00062B04D0092B5BD0052B6DD140E06B469D1D00232B80AC
:205B800003004888B0331B68020A022A0AD003D8012A5ED11B6809E0032A0BD00F2A58D1AF
:205BA000DB6903E02300B4331B68DB6A2800984707000EE0C0B203280BD800F00DF9020474
:205BC00006085B68F2E79B68F0E7DB68EEE71B69ECE72A88002A40D0F388002B3DD0111C06
:205BE0009A4200D9191C2000298000F0E9F82A883900200000F0BCF82FE08B88002B2CD128
:205C0000CB88002B29D14D887F331D4003009E331D702900FFF770FD200000F0C5F8002D41
:205C20001BD002239C34237017E002009C321378023B012B11D88978002906D00323416086
:205C40001370FFF7A8FE022803D0200000F0ACF803E031002000FFF77AFF0020FEBD0000F6
:205C60001223038000487047EF2E00080423038000487047C92E00082423038000487047D7
:205C8000702E00080E23038000487047652F00080A23038000487047942E000829230380C7
:205CA00000487047A02E000800207047030010B50400BC331B6810009B6898474022022183
:205CC0002000FFF73FFD002010BD0000602310B50A7813401CD14A78062A19D14C88240A9D
:205CE000222C07D1CB881A1C222B00D9221C92B208490BE0212C07D1CB881A1C092B00D956
:205D0000092292B2044901E019001A0000F030F8002010BDCD2E00085C2F000810B504004F
:205D2000402303228221FFF7C6FC0221402303222000FFF7C0FC2300064AB8331A600433F4
:205D40001B681B689847402202212000FFF7FAFC002010BDD80900200223002902D000239C
:205D6000BC3001601800704700207047002070471300020010B50224943214600A00836131
:205D8000C3610021FFF7C0FC002010BD10B513000A000021FFF7B8FC002010BD10B500219F
:205DA000FFF7D0FC002010BD03000422943310B51A6000231A001900FFF7A6FC002010BD2A
:205DC00003000522943310B51A6000221100FFF7B9FC002010BD000002B4714649084900C1
:205DE000095C49008E4402BC7047C046002243088B4274D303098B425FD3030A8B4244D32B
:205E0000030B8B4228D3030C8B420DD3FF22090212BA030C8B4202D31212090265D0030BD5
:205E20008B4219D300E0090AC30B8B4201D3CB03C01A5241830B8B4201D38B03C01A5241E2
:205E4000430B8B4201D34B03C01A5241030B8B4201D30B03C01A5241C30A8B4201D3CB0233
:205E6000C01A5241830A8B4201D38B02C01A5241430A8B4201D34B02C01A5241030A8B420B
:205E800001D30B02C01A5241CDD2C3098B4201D3CB01C01A524183098B4201D38B01C01ADC
:205EA000524143098B4201D34B01C01A524103098B4201D30B01C01A5241C3088B4201D317
:205EC000CB00C01A524183088B4201D38B00C01A524143088B4201D34B00C01A5241411A67
:205EE00000D20146524110467047FFE701B5002000F006F802BDC0460029F7D076E7704776
:205F00007047C046D0400B1CD1409C46203AD340184352426346934018437047F0B54F4676
:205F20004646C0B41604360C9946330005042C0C070C150C63437E436F4365431C0CAD19CF
:205F400064199C46A64203D980235B02984647446346250CEF191D044B464A4343432D0CD5
:205F6000240464199918C91920000CBC90469946F0BDC046AE001000B08180A1A6A81FC854
:205F8000D300D91FDA00DB408D14A42E21007F22000340C0F0F8FCBC3E06063EBCFCF8F041
:205FA000C0D8DAD9D5D6D0D8D9F8484848B80000C0202020C00000C0202020C00020F020F2
:205FC0002000F80000C0202020C00000A0A0A0E00000C0202020F80000C0A0A0E00000E031
:205FE0002020030F1F3F3373727273333F1F0F03D7D2D5DDD4DFDBD3070404040700000378
:20600000040404030000030404040300000704040007000003040404030000070404070021
:206020000003040404070000030404040000070000D7D7DFDBD1D4D6DAD8DBD9D4DBD5DB8C
:20604000D4D4D3DEDDD0DED2DDDEDCD2D6DED9DACCCECFCF0000FFFFFFFFFFFFFFFFFEFC90
:2060600000D4D3DEDDD0DED2DDDEDCD2D6DED9DAD6D8D3D2D2D6DFDFD4D8D6D8DED6DCD8F3
:20608000D5DCD2DBD7D4DED3D0DFD3DAD3D2DDD9DADFD2DCDCD2D1DAD7D0D6DBD2DBD033C7
:2060A00073F3F30000F3F3F3F30303F3F37333DED7DBD6D2DED5D8DED4D1DFD7D3D2D9D4DB
:2060C000D2D8DFDFD5D5DCD5D5DEDFD2D1D8D1D3D6D3D7DDC0F0F8FC9C0E069E1E3C7CF82F
:2060E000F0C0D5D2D4D8DDDBDDD0F8888888700000C0A0A0E00000C020202000C020202018
:20610000C00020C00000C02000C0A0A0E00000E0202020C00000C020DBDBDED0D7D9D7D381
:20612000000000030F1F3F3F7F7E7F7330381F0F03D7DFD3DDD9DCDDD20700000106000050
:206140000304040400000304040400030404040300000106060100000304040400000700EB
:206160000020211E0601DFD2D0D1D1DDD4302E38000100000103AB288D8AD7D95992BACC3F
:20618000F86720E1152E398D8036D66FF0FD90E87D8BE17C8759000040000000958D8A20E5
:2061A00043AAD8F44A87876519470AFEF6286AAA6E9A318BA4EACC5FF1973E34C84DECA0B7
:2061C000169FA56227DBF767A900D0E9AD906AED1F5FAE8321415835A99D85D7F84580723E
:2061E000022076036E3E3745434BBF05D914E32FB5CE3EEF1324AF7FA40B63EF2AB20A6E21
:2062000010B7B00D24BE2D9DA05631DC551169F29841F2668804D1491964662117CF747FD6
:20622000160241BE1B59A56B5E92705074D50E707983EB57098DE09B60039D5D3C3F62D0F3
:206240004EAF8E0915EBB5696102F0717B928E68DD1E060F3E9FF1719333B0A2448225383B
:206260000ECC14FC411A12694F74461E24C3C2DC4C8DFB1077D120742097038BEBD496EE6A
:206280009469835977DEA5AF0DABC36F5AE88334F9F9FD4263E0D62F758FA98399723E9611
:2062A000763BA675AF0F1BD14D8C1BBBB8D9BC29B7C1F31BB557066FAE6716AEBBE7113878
:2062C0003DC3E1CF25B0751348BBA9840543E59730F0E257693D51DA7CC059A7BC8542E3F1
:2062E0004B73BB4017F17612C17E125159994673D91F37C10144F4E59A47B1AF112BB36565
:206300006DBEBBD5C63D2F3C6AC4C154AE890DA73DECCF1CEE46230D37D2D2A973F604D2EB
:2063200009ABCB1F3366860416FE1CC566CC0D1E405466DB47AF1FF8ED3ECDBB6551EFAA66
:206340002174AF6697E5EABF9D4486BF4C1C159E95B6759AD898EAD7946EB9EE1E4DCBB90A
:20636000FB66EC968D46AE1EA57E0D2F9A2E9A79004ECF88FD07227361590C3D6C58240038
:2063800004DFC744CFFAC4EAEB8A79F482604183F92CADFD097F6F4BC7D4F450B5E3235114
:2063A0000100010000008000982F8A4291443771CFFBC0B5A5DBB5E95BC25639F111F159F6
:2063C000A4823F92D55E1CAB98AA07D8015B8312BE853124C37D0C55745DBE72FEB1DE8073
:2063E000A706DC9B74F19BC1C1699BE48647BEEFC69DC10FCCA10C246F2CE92DAA84744A28
:20640000DCA9B05CDA88F97652513E986DC631A8C82703B0C77F59BFF30BE0C64791A7D59D
:206420005163CA0667292914850AB72738211B2EFC6D2C4D130D385354730A65BB0A6A7694
:206440002EC9C281852C7292A1E8BFA24B661AA8708B4BC2A3516CC719E892D1240699D6C4
:2064600085350EF470A06A1016C1A419086C371E4C774827B5BCB034B30C1C394AAAD84EC4
:206480004FCA9C5BF36F2E68EE828F746F63A5781478C8840802C78CFAFFBE90EB6C50A4CB
:2064A000F7A3F9BEF27871C624034E0061006E006F0020005300200042006F006F00740010
:2064C0006C006F0061006400650072000A033000300030003100000009022900010102C07F
:2064E0003209040000020300000209211101000122220007058203400001070502034000B2
:20650000010403090406A0FF0901A1010903150026FF007508954081080904150026FF00AD
:20652000750895409108C01201000200000040972C01000002010203010000002926000837
:20654000352600084D2600084126000859260008412600084126000800000000E526000876
:206560005C79D54295260008DB5E0460064676D47126000875260008878E1F29633B9BC79A
:20658000F7686CC965260008652600086526000856EC17EC0921110100012222000E034C8B
:2065A0000065006400670065007200003527000831270008C522000836366132326336391E
:2065C0006537646638653935633433366235626363643637346438633032333437333763BA
:2065E0006434363338666536376266366162366337623866653331383836363239343161C3
:206600003563373334613165643930663235653166383433613239373935666665303434DE
:20662000326236653035383333356234323165636634663534333863FFFFFFFFFFFFFFFF03
:20664000526B844F883008CEA7117491B36B01C7EE01794442A0A362EAACCE66D07186C590
:206660004596CD172AFAF44FE48CCE742A83CDC3AAC4BBE37B37052AA25293BF0EB26CE2C4
:20668000B3CACD2DCC1B21E3EA1DB033F4E5D708A51C4CDFB2A94BEE2B9F0BB887686D3657
:2066A00021804F4E472F6AC73262CA281E08D513113E3B53CEA45D0F01F01E429A040702AE
:2066C0008FC976D0DFF3C565CBFBDC50B2954F5C69CE835A3B845C0E30B307602674E93002
:2066E0006B32A8EEB32692F1A0C6D8EA7781663AC4E6F6451C4B170FB2F490F3388574106F
:2067000008CD7BAEC4D6E6D1B70585F752F994B5D0064DADCA90DCCC250CBC24AAF83CF4A9
:20672000B6D6083FD677DDB5293DEE2F580BDD5BD9B1B46F154FE78F2FE99559E685A02EC3
:20674000001BB4004AAAE0A5A59AE100895A003AA765E823071000AE7500205D36CB7A4823
:206760006100B8E500F770B8499FA4F408E41B1171C39239A117E0014A70426A0BF5266CD4
:20678000A085D0D956C5B1F99C1FAAAEB84F4191CE9A3B97C6C329ACBBD0F0374ACBB07DEE
:2067A000935387B2CC65B3C245CFDD1B37EFEA0EA533F546C84AA5D270DF3AE04B3EF0ABC1
:2067C000CEB890226DE4DD8000BBE6E16ACF6262D9AE1EB31CD4263E43D0CE97320FB3AF8D
:2067E000C8F19A61BD025486763A6A93F665417DDC75FA95904BDD858360B084E40A30DE56
:2068000002CAA67446656B588355D14C3DEFA09B29EA49AC39F473AEF9454F4A179578CFA8
:2068200092F4B8F37414CFCD1E72750A649F22052C3F527AC6DE5449C59DC25E7BDD519D8A
:206840000F4FAB3FD2F5CF924A9F75153719E75B3E5EDECE98CD14A69E95E1000303E19DC4
:20686000BFDA2B460AEABBF8CF374F8042F73625EFB2E5B8B3F06A48243826F3EAB3C53361
:20688000D4B8E1C3DF542DDF0A4C4B195B274227239C65D23A913E8DD516CBD0D2638058C5
:2068A0005C62DEE637529BD61E7D0BCAB009825D30AABF4DCE58B84AE46403A6E257678035
:2068C00042A20597D9B31009BC36906B837142AFFB6FDEDF813C0DDD46605ABB0514A83542
:2068E0004D612D04344D38FD8C697AEB6F749048DE641EDF6AAFA200DA65FA05913BC627FD
:206900009C6EA6BA63A9855C50F161CE718ACA1EC06BCA91F7ABD44A2CE24DFEF4B86D4FC6
:20692000E88F3951E96FB6A5B33BA1EA44B1160C37C99DC1A0809DEA0306D951D634184574
:20694000C61017AFDFAA7AD7BFE374BABACD3E2F43C11ED7430594DA528DB6661DD6616996
:20696000CABA60CC205E9D760A2832F485E208F57EE0117547DEEE87880B293488B9343BFC
:20698000594F42922F07844DED85234600283F00054BF28AA576680029DD00322F87F923D9
:2069A000111C00BD600021FE29897A865D0030AC0027AB8C8C9FB3BE0836E7113E3633F7B5
:2069C000A11FB00159F642D1C232116CD806D0EA39C503A64AACAACB024F9ADECE708EF73D
:2069E000F5C3A32ABBF5B83795DC043693690CB27461B3AF40655D1B98BAEA648E88972C41
:206A00006754A58F81DF04CD14F047E3C1B8C3236D7E17BB02BC66976ACBA562BC72AF6FC9
:206A20009E9AB33EEA18CE14606437E040C192AF1A132017C5516B54186438399ED559F743
:206A40007AE713E353113641A19CFDC92830523BA2E9A52CA9D61C8F972B1B7852DD4C8640
:206A60009BA6E011F7F723A8A45FB5E25EEF99109E097FFEEA97A202C1836EDA9E961994E5
:206A8000ED415FF142F5AF685A5D1ED34860C1F8E09705BA5497A0062627DC08F0FA83C1FB
:206AA000993D0AE40491E6028CCA974D6029EE23C11167A87DA200DC2B39B57FD436B9B6D4
:206AC00083436D28024CCFC381816DDD679E73327F92F5357DCD2D239FC1B4623FD772DDD5
:206AE0008865AE7EED93BFC0DAAEFBF698B4383780571E214C849F7F600FCFF0FA3A638100
:206B0000EB54046E4E9C3F5254816FBF94D5D822F08EFE26E43D4D305AC0F6C0EE2039503C
:206B2000AED59884A0E5FA95050F1C3507CBCDA191D7D9FD05337AD1C811786BD9741E71A4
:206B40001FAF825DECAE804DF03B7EC29C99D6022A3621A858157ADF00495827617C2A905B
:206B6000BDDB962027176B92543DBD96BE4A88A875701C0B0B74E07B8A2B2D9BF10AB46DF1
:206B80001B506DDD49CD692C45679FF70A75A46D9A65A7CC880C9EB41FFECB698B8BBB0544
:206BA00033DAAE3A19B346CDD36EF14BA75EBD4C20E57B9760E750965C4C16466234374B16
:206BC000040E2010BA049A9B4048AE5AE44D1614593DEEDE1BE0623BDC5DC59595002F0F35
:206BE0002616D884CDD730EC2D4D5F5757796BE5E355F0B21466DA1D74EA790039D3D822C5
:206C000075DAFCF41FA39FDEACC28B04D50B7FCC478437DBA6AD3369F4398290FF1B57EF63
:206C20008F3168957992CB43C13F25C827366CB8F16ACD22A2C5E36DAD37D27CECACA70995
:206C4000DEF0BC1B9BB90BF93152BC6A6DBE1E774EE84B4D560771C62E0A269BDE8E7DF397
:206C6000268440648078605168CA4EAC41CE9EE1E054850D3B4375C7635DF77D20821E9A55
:206C80001047A084CA07B861C2B787114DB588354D6C3D8B11957F94189AED766CB11D66D0
:206CA0004DB21F29757C7CF8107F49114215F0184BC1B3C3272EF74DA58047CF1F357223A1
:206CC000ACF7F8B9C497C6EFD3F73490D90C670CCE9CD58335298E9B9604DF278A38A7BA5E
:206CE0008EF25A03B71C1A2F6C94257BFA948FB8546087CCFD405D53A04224B236BAB3E2F5
:206D000051404D22DF81D8303CB980E76A2CDB8DB1776E29C5307BD15057EEF3DF1268DFF1
:206D20007ECBF47249F5AC27F9C7657257CFD4A95270CB7A6063C5D9DB7526E0C3528AFB01
:206D40001E0929197DD9AE993080034DCB0A991844B40DA6D163674AEA35C957B75010A120
:206D60006C366404D279C2FBB76F7BC281D21CC94D60D9D30527233502803F2B34A1B1FD1A
:206D80002CEE7AE3E7968148C8681ECC7FAFA3A3C527FACBAD3B4E6E9CBE7D8EA6A99216F7
:206DA00050239DCE3E7F6BD0C0639A91E42DD4F1E5257AFE8C3B6D7C878F8B0E3FDCB6C067
:206DC000093B7AA5445BA36C04C91747A0A5D5EADC116D1AD60E93457E1417C2DA00FAD72D
:206DE00010B674D091765C45ECDF1E8AB205AAF70D43012E12D63268CA20AAF722591D00F2
:206E00000A2CF5F4E03EB929FCAE8475EE16EE04DA60AD7B00893CF5FE5E36039C6C858AF2
:206E200003845A0242889C62EFE73CEC7507EEC56C4BCD25057D0D6CF590CEC94A83EC3DC4
:206E4000834DC16526373586A2753833822DDF5CBBFC2A3CF22D12144B020032AD1395D9A9
:206E6000672E5DB36AAF9B04125A081ECDC4C7FD23CFD590895FE430C7A16902A5FD6D2475
:206E800084E23F655DCD51BD7591ADEDDA615A1917739CB4517B5249ACAF79DF334A4B9115
:206EA0007D3EC4B9FA3C9F2D5DCD10DB24C88FA701F90D8C0F543D9E3E5C6BD49D99A82EAB
:206EC000A482C1A55C8A85A0A8E7B0E4FDD41F4410A943975A03BF26CDE2961401E8A2F417
:206EE000719AB064E2A08EF787E51908032E207B21FD134784AA9133B29B0E3EAFFCFEF374
:206F00007DEE018D4BA07E9FB1E0EAA70C12022CC198DADAD43CF93148DBBEF1CBAFAF526E
:206F2000FD38F6F04F70C156959725E7625CDA4E472764EDF00DF379D0A2AE100C75FD1359
:206F4000FD090574C13E0E228B6125C2765726B08BBC65A682F3084F1F5CC786BA038E528A
:206F60004F1B564AA15D5A9EC442050237069D5E0C9233D0F3B2C11FCDAA7365DA7C55CEDE
:206F80007F9D0EB050FE9DE5F08824C107BA6FD4AEB75FD297DEBE01EBEFE28F24535D30CD
:206FA0008D2F710C8801FE1CB35E30B1D632FE9F92316CA153226DD6D8EFF2175680BBE88D
:206FC000D97AE6A09780102412B76979E1394A0FCADBDE1F9F1175299CFA5311D14120D67D
:206FE000D9D1376EA56DA5ACD3736EE24F80021092BDE0D41568E55DA3A9E32A43884997A2
:207000007802EFEC7894DCE1B0EDDE5570A9B1E6856486A423FF7BFF51CF18C87ED48E77CC
:207020007B39413992B8B0CB04F046CC8B0F7F29A024E02F816100FDFCEDE1BA5B4470E8E8
:207040003CDC14F314AED70404DD5D648A5495A588F4F785BD601A940E426B09E123D8BC9B
:2070600063D4CB88DEDC28998C2B250EC983E263803F1B73A252B4D9386BD34E7DDEB2B140
:207080001DE7E01A9921D3AF0731F314F631BD9D36487C97E060C82BC9EC6C9F9CD2DD71B6
:2070A00057AD55DB5437721101E46D60A3B99B5CB958AF94CB566F120358127E16E65B0B46
:2070C0001F5B3B174D99CEB82B0F372733FE254A315974C68F0522558E01DDD5EA33C1E76B
:2070E000F13976FB9A15CA3D620A06B3A2BF1C89C6851FCA37E1CB5695BFE18EC4C9765D84
:207100005F03D36DE14E030BE3525C5CED776D82A54DE0D2FF28644DAFA4D43E70CA864E61
:20712000817699C60EB01CEF1FE18BED0C431EFDD2208DBA4CEF8010479A2DDDF09E740D50
:207140006E9F586405CB1E9FC3CA9AF7AF97C376FCCF055D3032F66E4172DBFFC4BFF9EF51
:20716000D6BCC61A7C7A0F0CE741D5B11AAE77B88718DF9AEA388644A77B2085EA1C2A8369
:207180006CB38EF7760B3C065C5660DDC3766EA4015D94B36F4CF13393725C4E078708DAAB
:2071A000057C834120807146B338F4F70B40F526A5944DD964E7D0E8EB17F044DA9CA095B4
:2071C0008DA6D6DD17AA89B2CACA211EEEEB52F5BC21836F428D8E360AF96EFABC616DBAC9
:2071E0005DFE14F6C9B6FF8F2E7FA8C46D11C82574AF7A695D48DEB50C5253E492B85054D8
:20720000AD7C5BD54483779D5504E1EA9BF27AC278672CC867B087BC8D72872ACFA6D373B5
:207220006A81BBE0D679BF2C520CE1B3FFE602E807189D9F515EB1BEF47C282C6090F2C0EE
:207240005E6AE56F0EBA76F324A6142412AD74E86ACED4FF7D2919A8536664760C3B629482
:20726000E45E12FDF43275ECFA36B11226F41084E7291D26DE911CD59C7CE39DF15FB266E2
:207280002DCE7922CFA7AA2B267AB451C6E08BDE4963C7DF2015D2C38BAD982987A0CA1B38
:2072A000833C714093DBC32745A119193F5E4E28763B987D71FF3A4AD92AA1F4DA3CA4557A
:2072C0006FB022CD398371BA0C4402D5FF476EED1EC4CAA7041FD36FD7CCAEDAB2E2EDA4E9
:2072E00052FBC6156610926CE13CDCFC1C0D2B44E5D798B60DF66F4C622141866D6456A587
:20730000838DD1E3C8F7BD2CEBDEADFB502BFA41D80EEB5F4953ED6974D941A7C15487BF28
:207320005FA78C45827420C6173AC493300778D91174EFFF145D20032903792F4476178539
:2073400028BD0CD02FBC6FDC8BD22017FE5E89F3250C0609D454C102E1E55E5256FF21CDE6
:207360003282172875D881F00F5788FED1880423FE38382E185BE439A2F4412F45FE33BB8D
:20738000A700629F63C970ED7DB10501E69EA678B6952E2E15F864683DA6AFD7AFED688B6E
:2073A000E8DD047917F260171DC51F4F413CD63E6ECD667506789FBED075A9A71809AAB326
:2073C00076C2D555763A005333CD1DEDC9DE2B5BA57852E413D662CD51CB8E70143571EEE4
:2073E000CCE51219D0FA15D97F85E7367DE85FA0906DAF13C39145118E247382866B362617
:207400003528C82095C37E33A1A5E1AC1F1E6616135ACF7E41C55E374ECFB2DA3D40839202
:20742000BE606F8C51BD1E1280BD79494950C3F2CD6BA2EBA42B3D61E5E53FA0C9CF60FDD8
:20744000530AB5BCED718B58F16C9BDC73A0734CC8A852939C8703891BCD61B1DA359811C1
:207460005FDB54F2F0AC359BD2413369F3A0684FD1484C38A43D5C2EC9AE7E7FE77855B443
:2074800098B2DD2168AEF55D373DA71B0A5D977E0F5E1B93871F8F78ABF5DB7CA198BBEDEA
:2074A0007E710BD645803F7D13605983A9C7DC45DF3D42CBC9C8945817AD6442682C3F7345
:2074C0005090C100764F227A0066C49DB7DBB31FADADAC9884C5A8D8006594147E820C8976
:2074E000B5AA334D4F64EE74D8A319766272724B70899F7BA8D6749B9A13AEFA8913FC3040
:20750000DE5BEE74A9E027BA5B4A3D9361003E222662FA5700071C282D67E357522B4AB7C0
:207520004385FEB22752DAD7DC7DB5C05730D88AA5DA089B4EAB1F8AE0C22E19D5E56ED845
:207540004C84B4B3A69EB869BBD890BFFFF7DEEF2FB6689DF170DA43D73325DB32366D1B88
:20756000EE28CDEC9EC56B24ADE7094829ACB043DE22401BD44CAA37315AEC6A7E381ECCC0
:20758000872F7C4D2E8471F5410A94C4083D7D969C849B2B8092D5315BCAC42A41EBD6E165
:2075A0003F4331463B79FEC7DB59F71025289E9ABF12A0EEE1BCDA0B6DA9874CBCB5B61890
:2075C00012A28AC31E952C951800274D6EB69D104DB6D82910A0CD249231DC11EBDDF09B31
:2075E00019AA378CAF1EFF830291335EAC5E73E442F681FD8637658D395BFAF6097DE1C918
:207600008B0A18941FD37AD472881153A0BB6A792436E1E0CC2B1F05CEC6B6C4F426E35AB2
:20762000E7AA4AE1315B7CB04A5F9481C25F64EAF45C01FD6D2893DE17268B5FED44B6BB8C
:2076400090F72167821F1116623524DBC11ABDCC6FF5CF218751F128F8377B30CDCBD3AB24
:20766000DDB9BDAABF9000BC108EFAB071C7C5A777C7AA43465DF2970033042DED7E702858
:207680002F86A5486245F5BB4AF311BDC0D1769BA8D09241CE32D5F4059BEB31B95768D923
:2076A00045ADA27DC1F1C5E4B585BADC66582548FCE8374E2D065D84ED64A2E8D5579F57E9
:2076C00073F1F2F47B4C93DBB58393A1FEA24F4D899229A12B308C5FEF8A0FC802A874DF0B
:2076E000E53ECEFEC6918DD922156A0EB686B6FAAE5E9286434BA3C271C9371A966EAFA24C
:20770000BD11D5FFD6F9E3FD378BB336D2E4E1C66175E6E93061BC44A6AF5CE0B9F08C9B79
:20772000ADC6D1F744138391563F00599A165C91C4B6CE6326FD9085477E7442A4DD5E7962
:2077400049332AC9CCEC8F37BB91EB18AB836F84A6B7AF448AC239B09F38060C3E391E6E5B
:20776000A2F35D076899D0ECF52B2828204C8E5F5AE3DFD63AE313B8E1A5F6A4B0226CF35F
:20778000730DB05D4F2F46923D386AA15B76D4A4BB5BA726FAE44681913AB89A29CEF72387
:2077A000210573E4CF3A8F6844F4B84E9812CDBFAD0876C9643922138CD4E2A7CDF422D670
:2077C00085872447256F9D84B2DD0CD557D56994510196C33CE2CB649850D2855F15DE3A21
:2077E0000EB6A6B3DDA1F20C74C31EC1AA804F759ADC1F6BC4479106367251E4FED7FED9C1
:20780000AF7368D150E904DE02D5D994431F94D19E2855DC5150E4BFA3DD3FFBE99DE5483F
:20782000F545F2845BFEBCECB8D74527F4DBBCD45E72645F7131401264F62177DE7182747F
:207840009DFA043CE36E62E756A6B53B7BA62D0FCD9249BD8128791C71F32641800BBDCEEA
:207860000585617A29BEE3706C943E7B8F04BFBC0666DBAB400203FFCD017F7973438E85DD
:20788000C6DD48A2B6BE30B29335BD6DD5771E1A917F4895CBF2F89E1E27FF07A63D5B794D
:2078A00090FC956A901B44439D5B12ABABF69FD0BFF6C421A75549AFDC6A693FF302029B38
:2078C000463866837EB108A458D4436560E24B3CBAE6ECCD288163F6B058E9E00006E6DAD7
:2078E00054217B0E8C881701670C86ADEC4D85C79ABBF877D48584FE403ADF1FFCEF2B66A0
:207900000061BED3BF4FE85F96D261E554A32823A731261BE2B34B2B5B7847D6C739362BBB
:20792000CBF2A2463A6F61104E2CC06C43A076977D491D66DDE2B4E19930DE675F2E48C5AD
:207940009478861943FF5A017846624E23D4BEDB7B1EEAB51E2703750CC6A1DDB5394CDE84
:20796000013B502ED897422C3EDFF0D68342A002051917555E027DCF0692C7BA44241B5202
:207980007D3754AF0695A2A39B9E6F3F724AD40E17B578279EB975821491CF6A470B754F1E
:2079A000E76BBEFC238DB0142C9B94ADBC6671927099F7A19B9DB5386DFA56764A4312F290
:2079C000A8D2CFA90A78063FA9885B7FDC134FDE4DBE75CC91661945198055593D6CC2ABC9
:2079E000C3BFBC7798475953A2C4EFB73ED60930BDB29E3BE44FD237BC242C5F612369CC46
:207A0000AAFF94D778F201FD2A5E6837B4DC58F76F3009057082683FA38968693C29051D1A
:207A20002BC4403B7514643ECFE2FF5D8CA9B7A5BF94D6D7B5D9A30DC57580541D8DEE43EC
:207A40003C70EA36FBB9824F236E437310E3686D4067FE6E73121C3334D83E92D875A74BC4
:207A60005163E0924EA34FD3C61B40009700073F110DAD51780633BC5C0B2E959040B1ABF0
:207A800074AAAB23DDA149AE9BDC20095C0BC1D856EBD83B30FE9073874E1A41E09414396F
:207AA0006C4CDBF4A4A4B916F3FA4F3A7EC9F2A19C3D70D1923671360696961D2D5657F432
:207AC000AF880C37CFA90BA6967D407B004CC57B94AB5ABC25B30B977B298C9CD234EB57C6
:207AE000BA3BCF84884950A51B2C8E8646057697A790F7754FBFF36DCA8379398F977865B2
:207B000001FA154F659AE5A45EC4D36C022BE512288E08FDC2C21FF4A454855F9C1B7C4850
:207B20006FFF17B41485B7994935CC1398CDF4393719FC19CC8FE9294AFA2A831079C1C760
:207B40004BBD82F27E03C1715E1C766168F86E3F4A64C077B69EEFBA0E40F7F59DD235A335
:207B60000316BD8FEB5A2B25B434867684DDE4D407570BB1155A14C8F8FBD1B187AD5BE7BE
:207B80004CD80C7BB0FE29447E2B3B215B420971070BE24FE054AFF18EDCC8121F27C8A6F4
:207BA00092F3E1D2C132830B30BE68992454CDAA6A4A4EF9690A9942D24336C139FBDC3198
:207BC000C652AF4A598719804A92BDE1A096A6A37256BC62311E204AE896CB65D3F2E92106
:207BE000A8CB2466EA4631B3E8781D9EB782BA22215869806F84007C224E244E21C9131E76
:207C000038408AC38467B33EBF06E076F32C7345B2AF43185D53E7AB82612B813C8F35DE66
:207C2000F5903832C7F1D72DA096C69720D1DE90CEE1EC68D962C2B8F344408D3C9AE72707
:207C400095BCF4763C2F919164A608B6834177A714663F86A55AD78BB2BA835C2F320AFAE2
:207C6000BD831746D0CAE6ECFAF44DBF9D7A7089E621D9531A95E1471DD6FF3074662E4974
:207C8000ABFE5C0A6348DB2D8D717B29AC6BAE7566E290E48898DCA3AF15AC4CE732B7C19E
:207CA000AF78750CC7DA3C099E4DC1C82FD2E83616770CB6A6F90B3C2DE6EBF2398CCEA744
:207CC000C85EDA5C5C0DC84FC461CAA5F822BC22BAADCF037791A5CEC6B039AF826E5CC519
:207CE00070C44F6C7BA13127E0F5AAEAD30333AB3276D8F3A7596719D9F8D4BA7E8E3BFA71
:207D0000C94E36E0C1AFA036E6A4F5B295E76D278185CBCAD5DD36EC7D05D81D4949EE5DEC
:207D2000BC83D5F02407C459464C6D4EF9C49585F00F32EB38F8305D3D1B9C22B9B7F40080
:207D4000437952B07FBA35E78EAC284BD96D57635B451572DD86736E0732F247768C7532DD
:207D6000C450D84EE0709E0DE12C28E7696AB5178F1BD8A63B7F181D8F788C1EA9A0899BDE
:207D8000D81E26430DF15FCCF7127F3B683032E6529855DCE27A07F31861999ED1F9754F39
:207DA000DB64B9CC4403E5073500FA0A096EBBB042D2705A6827C9A8C9639118963112F431
:207DC0000CDA4191C597131A4412E790D49F5528123AC6F340FD3211E6F0974AE34430789A
:207DE0005C7083AEEFFFA1DEB5D85C71EA01E02FEB6CEB3C8462306E4B64C4AF1AC826C6D3
:207E0000CA83F12BEE6A33DC123F9C0AB346CB749665E6DDC63B0A441F027074C78F1F6F6D
:207E2000F46BA01EF51B2526EF8203175372A629C92872C0F89B75F3F7E5444C524A75B35D
:207E40005B5C3EEEFA3B830570AAF38C76E3C510427CF33E2806E749E221DE14CAA970A4F2
:207E60000158C93E12219A2A48259EFD2831719C5C2DF724FC9D074F763A06ABFE1F7C1B95
:207E80005E2CD8F913D054B450D63CD331184D60CFD5DEAB1A6FFA171F7C077686504EB0BE
:207EA000A3CC41969FECD4A880BA06CD722A1CE046B7A697FAB888C45D4CDF203EE947D8AA
:207EC0005F78E9E8899180F76CDD0FD54BF413869CD29571DA53F95665AF12D648D028A98F
:207EE000625E7B6B7F99AC18710D547ED06B1CD4C037CCC87E7891BA20CE32DB66D93AD76E
:207F0000352E74F64CF177EEAAA3FB4856A16FA83BA7D5103D7EDB3B941EF8E880322087D1
:207F2000F4D984FB2EDDDDBBC3C617CDF9DAEBF8797D5033CCC6216E36754EE48C83A70002
:207F40009900ADD49266EAB3F6E41EA06CCD195ACFE6547BE558DA75B7831A3B6AA6304B04
:207F600058D0A6EF3EA837BC8929A3EA0C632F0FC25FF0ABD5FBB437537A0E46B189902FEE
:207F8000D364C599CB8A1D0BD8B60CB4418C766C6A5B1ACA2B8D91091852F38157411EC380
:207FA0009B351224926BC188607758F78589BDDDC68F36DE6A7FFAFE3045022100894F816C
:207FC000DE06081564A34033BA05A7B53AC3AD1C4681D2A72BBFB7FD025ABDE2B502201481
:1F7FE0005A16E08F8A1F57624190062FA792C9C53A621C1D0AF7B6052E34FC04645EBB04
:0400000508003401BA
:00000001FF
